:100000000C942A000C944D050C9412060C94470095
:100010000C9447000C9447000C9447000C94470044
:100020000C9447000C9447000C9447000C94470034
:100030000C9447000C9447000C9447000C94470024
:100040000C9447000C9447000C94BE060C941405C5
:100050000C94470011241FBECFE5D4E0DEBFCDBF16
:1000600010E0A0E6B0E0E8ECF0E102C005900D92EF
:10007000AA37B107D9F720E0AAE7B0E001C01D9286
:10008000A339B207E1F70E9418080C9462080C9497
:100090000000789489B7826089BF83B7886083BF86
:1000A00084E68CBF83B7816083BF089580918D0003
:1000B0008A3038F080918E008F5F80938E0010928E
:1000C0008D0080918E00863038F080918F008F5F98
:1000D00080938F0010928E0080918F008A3038F0CC
:1000E000809190008F5F8093900010928F0080919C
:1000F0009000863038F0809191008F5F809391005E
:1001000010929000809191008A3038F08091920096
:100110008F5F8093920010929100809192008230C4
:1001200080F080919100843060F0109292001092E3
:1001300091001092900010928F0010928E001092F9
:100140008D00089580918D008A3010F010928D00FE
:1001500080918E00863010F010928E0080918F007A
:100160008A3010F010928F0080919000863010F04D
:1001700010929000809191008A3030F4909192001A
:10018000923020F0843010F0109291008091920013
:10019000833010F010929200089580918A008A3086
:1001A00010F010928A0080917900863010F0109241
:1001B000790080918B008A3030F490918C009230DD
:1001C00020F0843010F010928B0080918C008330EE
:1001D00010F010928C000895809187008A3010F002
:1001E0001092870080917800863010F0109278008D
:1001F000809188008A3030F490918900923020F00C
:10020000843010F01092880080918900833010F0C3
:10021000109289000895809184008A3010F0109225
:10022000840080917700863010F0109277008091E2
:1002300085008A3030F490918600923020F084302E
:1002400010F01092850080918600833010F010929B
:1002500086000895809181008A3010F0109281000C
:1002600080917600863010F01092760080918200A6
:100270008A3030F490918300923020F0843010F076
:100280001092820080918300833010F010928300DE
:10029000089580917E008A3010F010927E00809147
:1002A0007500863010F01092750080917F008A30C2
:1002B00030F490918000923020F0843010F0109251
:1002C0007F0080918000833010F0109280000895AC
:1002D000CF93DF9300D000D000D0CDB7DEB78091B0
:1002E00089008983809188008A83809178008B833C
:1002F000809187008C83809162008D8380917C0047
:100300008E83809160009091610085309105D9F5D0
:10031000FC01EC59FF4F808185BBE0916000F091BA
:10032000610081E090E08C0F9D1FE80FF91FE081D4
:10033000F0E0E659FF4F80818BBB83EF91E001979E
:10034000F1F700C00000E0916000F0916100ED590C
:10035000FF4F808185BBE0916000F0916100319793
:1003600081E090E08C0F9D1FE80FF91FE081F0E025
:10037000E659FF4F80818BBB83EF91E00197F1F746
:1003800000C000001BC0FC01EC59FF4F808185BB01
:10039000E0916000F091610081E090E08C0F9D1F82
:1003A000E80FF91FE081F0E0E659FF4F80818BBB39
:1003B00083EF91E00197F1F700C00000879B26C012
:1003C000809160009091610001979093610080930B
:1003D0006000049731F483E090E090936100809393
:1003E00060008091600090916100992334F485E071
:1003F00090E090936100809360009FE52AEE80E09A
:10040000915020408040E1F700C00000B79B42C0FF
:1004100080916000909161008530910589F4209170
:100420007C0030917D002F5F3F4F30937D00209303
:100430007C002430310524F010927D0010927C0065
:100440008330910529F4209187002F5F2093870046
:100450008230910529F4209178002F5F2093780055
:100460008130910529F4209188002F5F2093880026
:10047000892B29F4809189008F5F809389000E94E5
:10048000EC009FE926E881E0915020408040E1F7B0
:1004900000C0000026960FB6F894DEBF0FBECDBF99
:1004A000DF91CF910895CF93DF9300D000D000D09B
:1004B000CDB7DEB7809186008983809185008A83DD
:1004C000809177008B83809184008C83809162007F
:1004D0008D8380917C008E8380916000909161007B
:1004E00085309105D9F5FC01EC59FF4F808185BB22
:1004F000E0916000F091610081E090E08C0F9D1F21
:10050000E80FF91FE081F0E0E659FF4F80818BBBD7
:1005100083EF91E00197F1F700C00000E0916000E7
:10052000F0916100ED59FF4F808185BBE091600043
:10053000F0916100319781E090E08C0F9D1FE80FF2
:10054000F91FE081F0E0E659FF4F80818BBB83EF1C
:1005500091E00197F1F700C000001BC0FC01EC59CD
:10056000FF4F808185BBE0916000F091610081E0E8
:1005700090E08C0F9D1FE80FF91FE081F0E0E65935
:10058000FF4F80818BBB83EF91E00197F1F700C0B3
:100590000000879B26C080916000909161000197C8
:1005A0009093610080936000049731F483E090E0C1
:1005B0009093610080936000809160009091610051
:1005C000992334F485E090E090936100809360007B
:1005D0009FE52AEE80E0915020408040E1F700C086
:1005E0000000B79B42C0809160009091610085300F
:1005F000910589F420917C0030917D002F5F3F4F61
:1006000030937D0020937C002430310524F010923B
:100610007D0010927C008330910529F420918400A4
:100620002F5F209384008230910529F42091770078
:100630002F5F209377008130910529F42091850068
:100640002F5F20938500892B29F4809186008F5F8E
:10065000809386000E940B019FE926E881E091507B
:1006600020408040E1F700C0000026960FB6F894C5
:10067000DEBF0FBECDBFDF91CF910895CF93DF9343
:1006800000D000D000D0CDB7DEB780918300898341
:10069000809182008A83809176008B838091810093
:1006A0008C83809162008D8380917C008E83809109
:1006B00060009091610085309105D9F5FC01EC59FD
:1006C000FF4F808185BBE0916000F091610081E087
:1006D00090E08C0F9D1FE80FF91FE081F0E0E659D4
:1006E000FF4F80818BBB83EF91E00197F1F700C052
:1006F0000000E0916000F0916100ED59FF4F8081B2
:1007000085BBE0916000F0916100319781E090E05D
:100710008C0F9D1FE80FF91FE081F0E0E659FF4FB5
:1007200080818BBB83EF91E00197F1F700C000005F
:100730001BC0FC01EC59FF4F808185BBE09160003C
:10074000F091610081E090E08C0F9D1FE80FF91F90
:10075000E081F0E0E659FF4F80818BBB83EF91E0B1
:100760000197F1F700C00000879B26C080916000D0
:1007700090916100019790936100809360000497CD
:1007800031F483E090E09093610080936000809169
:10079000600090916100992334F485E090E090939B
:1007A0006100809360009FE52AEE80E09150204038
:1007B0008040E1F700C00000B79B42C0809160001C
:1007C000909161008530910589F420917C003091F1
:1007D0007D002F5F3F4F30937D0020937C002430BD
:1007E000310524F010927D0010927C008330910539
:1007F00029F4209181002F5F2093810082309105A0
:1008000029F4209176002F5F2093760081309105A6
:1008100029F4209182002F5F20938200892B29F4F4
:10082000809183008F5F809383000E942A019FE95B
:1008300026E881E0915020408040E1F700C00000B0
:1008400026960FB6F894DEBF0FBECDBFDF91CF91D5
:100850000895CF93DF9300D000D000D0CDB7DEB79E
:1008600080918000898380917F008A8380917500C8
:100870008B8380917E008C83809162008D83809138
:100880007C008E838091600090916100853091059D
:10089000D9F5FC01EC59FF4F808185BBE0916000E8
:1008A000F091610081E090E08C0F9D1FE80FF91F2F
:1008B000E081F0E0E659FF4F80818BBB83EF91E050
:1008C0000197F1F700C00000E0916000F091610035
:1008D000ED59FF4F808185BBE0916000F091610090
:1008E000319781E090E08C0F9D1FE80FF91FE081A8
:1008F000F0E0E659FF4F80818BBB83EF91E00197D9
:10090000F1F700C000001BC0FC01EC59FF4F8081D3
:1009100085BBE0916000F091610081E090E08C0F78
:100920009D1FE80FF91FE081F0E0E659FF4F80813D
:100930008BBB83EF91E00197F1F700C00000879B2C
:1009400026C08091600090916100019790936100B2
:1009500080936000049731F483E090E0909361000D
:10096000809360008091600090916100992334F43D
:1009700085E090E090936100809360009FE52AEE0F
:1009800080E0915020408040E1F700C00000B79B1C
:1009900042C080916000909161008530910589F49A
:1009A00020917C0030917D002F5F3F4F30937D0080
:1009B00020937C002430310524F010927D001092A9
:1009C0007C008330910529F420917E002F5F2093D5
:1009D0007E008230910529F4209175002F5F2093CD
:1009E00075008130910529F420917F002F5F2093BD
:1009F0007F00892B29F4809180008F5F8093800095
:100A00000E9449019FE926E881E091502040804002
:100A1000E1F700C0000026960FB6F894DEBF0FBEC7
:100A2000CDBFDF91CF9108951F920F920FB60F9215
:100A300011242F933F934F935F936F937F938F93E3
:100A40009F93AF93BF93EF93FF9380917A00909120
:100A50007B00019690937B0080937A0080319742CF
:100A600059F480918D008F5F80938D000E94560015
:100A700010927B0010927A00FF91EF91BF91AF919D
:100A80009F918F917F916F915F914F913F912F91A6
:100A90000F900FBE0F901F9018951F920F920FB6D8
:100AA0000F9211242F933F934F935F936F937F93F4
:100AB0008F939F93AF93BF93EF93FF93CF93DF9366
:100AC000CDB7DEB72697DEBFCDBF83B78E7F83BF9E
:100AD000809192008983809191008A838091900017
:100AE0008B8380918F008C8380918E008D83809189
:100AF0008D008E83E0916000F0916100EC59FF4F12
:100B0000808185BBE0916000F091610081E090E020
:100B10008C0F9D1FE80FF91FE081F0E0E659FF4FB1
:100B200080818BBB83EF91E00197F1F700C000005B
:100B3000879B1AC08091600090916100019790930B
:100B4000610080936000992334F485E090E09093F5
:100B50006100809360009FE926E881E09150204089
:100B60008040E1F700C00000B79B3EC0809160006C
:100B7000909161008530910529F420918D002F5FBF
:100B800020938D008430910529F420918E002F5FF1
:100B900020938E008330910529F420918F002F5FE0
:100BA00020938F008230910529F4209190002F5FCF
:100BB000209390008130910529F4209191002F5FBE
:100BC00020939100892B29F4809192008F5F80936C
:100BD00092000E94A2009FE926E881E09150204007
:100BE0008040E1F700C00000B69B72CF83B7816000
:100BF00083BF26960FB6F894DEBF0FBECDBFDF9140
:100C0000CF91FF91EF91BF91AF919F918F917F9184
:100C10006F915F914F913F912F910F900FBE0F9069
:100C20001F9018951F920F920FB60F9211242F93B9
:100C30003F934F935F936F937F938F939F93AF9364
:100C4000BF93EF93FF93CF93DF9300D000D0CDB746
:100C5000DEB783E090E09093610080936000809124
:100C60008C00898380918B008A83809179008B83AB
:100C700080918A008C83E0916000F0916100EC59D2
:100C8000FF4F808185BBE0916000F091610081E0C1
:100C900090E08C0F9D1FE80FF91FE081F0E0E6590E
:100CA000FF4F80818BBB83EF91E00197F1F700C08C
:100CB0000000879B1AC080916000909161000197AD
:100CC0009093610080936000992334F483E090E076
:100CD00090936100809360009FE926E881E0915045
:100CE00020408040E1F700C00000B79B2EC08091FB
:100CF0006000909161008330910529F420918A0071
:100D00002F5F20938A008230910529F42091790089
:100D10002F5F209379008130910529F420918B0079
:100D20002F5F20938B00892B29F480918C008F5F9B
:100D300080938C000E94CD009FE926E881E09150CD
:100D400020408040E1F700C00000B69B88CF0F90A4
:100D50000F900F900F90DF91CF91FF91EF91BF9186
:100D6000AF919F918F917F916F915F914F913F9143
:100D70002F910F900FBE0F901F9018951F920F92FA
:100D80000FB60F9211242F933F934F935F936F935E
:100D90007F938F939F93AF93BF93EF93FF9385E0E0
:100DA00090E0909361008093600080917C0090912E
:100DB0007D00892B11F40E94680180917C00909144
:100DC0007D00019711F40E94530280917C00909164
:100DD0007D00029711F40E943E0380917C00909167
:100DE0007D00039711F40E942904B69BDECFFF918A
:100DF000EF91BF91AF919F918F917F916F915F9193
:100E00004F913F912F910F900FBE0F901F9018950B
:100E10000F931F93CF93DF939091920080918C005A
:100E2000981316C09091910080918B00981310C078
:100E3000909190008091790098130AC090918F0052
:100E400080918A00981304C082B3816082BB03C082
:100E500082B38E7F82BB20919200C8EED3E02C9F9C
:100E6000C0012D9F900D112420919100F4E6F29F76
:100E7000800D911D11242091900030E0A901440FB4
:100E8000551F220F331F220F331F220F331F240F32
:100E9000351F820F931F20918F00820F911D20918B
:100EA00089002C9FA0012D9F500D112420918800B6
:100EB000F29F400D511D11242091780030E0B901BE
:100EC000660F771F220F331F220F331F220F331F8E
:100ED000260F371F420F531F20918700420F511DCD
:100EE000209186002C9FD0012D9FB00D11242091C0
:100EF0008500F29FA00DB11D11242091770030E0F4
:100F0000B901660F771F220F331F220F331F220FE5
:100F1000331F260F371FA20FB31F20918400A20F8B
:100F2000B11D609183006C9F90016D9F300D112465
:100F300060918200F69F200D311D11246091760092
:100F400070E08B01000F111F660F771F660F771F70
:100F5000660F771F600F711F260F371F609181008A
:100F6000260F311DE0918000EC9FB001ED9F700DC8
:100F70001124E0917F00FE9F600D711D1124E0910E
:100F80007500F0E0EF01CC0FDD1FEE0FFF1FEE0F3D
:100F9000FF1FEE0FFF1FEC0FFD1F6E0F7F1FE09175
:100FA0007E006E0F711D4A175B076CF4841795075E
:100FB0003CF08A179B0724F4E2B3EF7EE2BB03C048
:100FC000E2B3E061E2BBA417B5076CF484179507A0
:100FD0001CF48A179B0724F442B34F7E42BB03C024
:100FE00042B3406142BB261737076CF48217930760
:100FF0003CF08617970724F442B34F7D42BB03C0F1
:1010000042B3406242BB621773076CF482179307C6
:101010001CF48617970724F482B38F7D82BB03C02C
:1010200082B3806282BBDF91CF911F910F910895AF
:10103000CF93DF9300D000D000D0CDB7DEB78FEFD5
:101040008ABB84BB17BA81E381BB84B78F7B84BF23
:101050008BB7806E8BBF8AE085BF0E94490080916C
:1010600092008983809191008A83809190008B8384
:1010700080918F008C8380918E008D8380918D0074
:101080008E8380E090E018C0FC01EC59FF4F208176
:1010900025BBE1E0F0E0EC0FFD1FE80FF91FE08158
:1010A000F0E0E659FF4F20812BBBE9EFF0E03197EC
:1010B000F1F700C000000196863091052CF30E94E4
:0810C0000807CDCFF894FFCF23
:1010C80005000A00010204081020C0F9A4B0999292
:0A10D80082F88098880302020101EB
:00000001FF
